:020000040000FA
:040000000000D828FC
:080008008B1807281B2834089F
:100010003B3C031D14283208003C03191028B90A80
:10002000B30106108B101B285C21112106108B10C8
:100030007D21B3011B28B30A34083B3C031D26284D
:100040003308303C03192C280B11D7283308203CE7
:1000500003192C280B11D7280B192F28D728B301E7
:1000600034082A3C031D43283008B5003B30B40057
:100070000030B9000030B2008030CC009630CD00A6
:100080009830CE00A72834083B3C031D9228320844
:10009000003C031D5128C030B100DC212422B20AEB
:1000A000D7283908013C031D8828C030B100DC2165
:1000B000842106108B100C3081000B111030CC0005
:1000C0002730CD000030CE005408C9005508CA00C2
:1000D000CB01C424B10A2B30B0007D211030CC00FC
:1000E0002730CD000030CE005608C9005708CA009E
:1000F000CB01C424C530B10074123108C921741673
:100100002A30B4002B30B0002B30B500B301D72813
:10011000F620DC21842106108B100C3081000B119D
:10012000B301D7287D2162223408303C031D9B286F
:100130003008B800C2283408363C031DA228300815
:10014000B800C22834083A3C031DBC28B40A742302
:10015000DC21C030B100042235082B3C0319BA2839
:100160005608003C031DBA285708003C031DBA2856
:100170004B22D728D023D7283408353C031DC2286A
:100180003008B500B40A06108B10B10A7412310899
:10019000C92174163408353C031DD0282B30D128D2
:1001A0003030B0007D210C3081000B11B30109000B
:1001B000000083120313061483160313850106300F
:1001C0009F0000308500831603134730810083129F
:1001D00003138101D9308100B0308B00DC21F6207F
:1001E0008421F128FF30B721F22808003030B00018
:1001F0000030B3000030B900C030B1000030B200B0
:100200003030B400403014254330142546301425D6
:10021000493014258030CC009630CD009830CE0087
:1002200008003408303C03193A293408313C0319DA
:100230003F293408323C03193F293408333C031961
:100240004C293408343C03193F293408363C03193F
:100250003A293408373C03193F293408383C03193C
:100260003F293408393C03194C2934083A3C031916
:100270003F295B293008373C031D5B295929380881
:10028000363C031D47293008363C031949293008FC
:100290003A3C031D5B2959293808363C031D542973
:1002A0003008343C0319562930083A3C031D5B29B9
:1002B00059293030B00008003408353C031D61294D
:1002C000682934082A3C031D66296829B00A7C295C
:1002D00030082B3C031D6F292F30B0007C293008DB
:1002E0002F3C031D76292530B0007C293008253CA1
:1002F000031D7C292B30B00008003008C92174127E
:100300003108C9217416080074128030C92174168E
:100310004530C9216E30C9217430C9216530C921E9
:100320007230C9212030C9214F30C9217030C92114
:100330006530C9217230C9216130C9217430C921A9
:100340006930C9216F30C9216E30C921741231085A
:10035000C92174163030C92174123108C9217416AC
:100360000800F930F0000000F00BB3290800F1009C
:10037000B121F10BB82908008516B121B121B121B5
:10038000B121B1218512B121B121B121B121B12118
:100390000800F500F039F200F20E72088500741AB8
:1003A0000516BC21B12175080F3985018500741A25
:1003B0000516BC21B12108006430B7210F30F400CC
:1003C0008312031385018316031306309F008312E3
:1003D000031303308500BC210530B721BC21B121B6
:1003E000BC210510BC212830C9210830C9210130A9
:1003F000C9210630C9218030C9210C30C9210E30F5
:10040000C9210F30C921080074128030C921741627
:100410007230C9216530C9217330C9217530C921B5
:100420006C30C9217430C92174123108C921741685
:100430003D30C92174123108C9217416B10A7412F1
:100440003108C9217416080074128030C92174164D
:100450004B30C9216530C9216530C9217030C921AF
:100460002030C9215B30C9213130C9213A30C9213E
:100470005930C9212C30C9212030C9213230C9213D
:100480003A30C9214E30C9215D30C921741231087A
:10049000C921741608006D30C9216130C92174303A
:1004A000C9216830C9212030C9214530C9217230A5
:1004B000C9217230C9216F30C9217230C921213060
:1004C000C921080040301425433014254630142536
:1004D0003408303C031D822A493014251030C000F6
:1004E0002730C1003008303CC300C309C30AAC2523
:1004F0004908C0006A254608C9004708CA004808DC
:10050000CB00732B3408313C031D9E2AE830C00019
:100510000330C1003008303CC300C309C30AAC2516
:100520004908C0004A08C1004B08C2006A254608B5
:10053000C9004708CA004808CB00732B3408323C76
:10054000031DB82A6430C0003008303CC300C30922
:10055000C30AAC254908C0004A08C1004B08C200C4
:100560006A254608C9004708CA004808CB00732B13
:100570003408333C031DD22A0A30C0003008303C16
:10058000C300C309C30AAC254908C0004A08C1001A
:100590004B08C2006A254608C9004708CA00480837
:1005A000CB00732B3408343C031DEC2A0130C0000F
:1005B0003008303CC300C309C30AAC254908C00059
:1005C0004A08C1004B08C2006A254608D400470803
:1005D000D5004808D600732B3408363C031D0A2B7F
:1005E000493014251030C0002730C1003008303C9D
:1005F000C300C309C30AAC254908C0004A08C100AA
:100600004B08C2006A254608C9004708CA004808C6
:10061000CB00732B3408373C031D262BE830C00079
:100620000330C1003008303CC300C309C30AAC2505
:100630004908C0004A08C1004B08C2006A254608A4
:10064000C9004708CA004808CB00732B3408383C5F
:10065000031D402B6430C0003008303CC300C30988
:10066000C30AAC254908C0004A08C1004B08C200B3
:100670006A254608C9004708CA004808CB00732B02
:100680003408393C031D5A2B0A30C0003008303C76
:10069000C300C309C30AAC254908C0004A08C10009
:1006A0004B08C2006A254608C9004708CA00480826
:1006B000CB00732B34083A3C031D732B0130C00070
:1006C0003008303CC300C309C30AAC254908C00048
:1006D0004A08C1004B08C2006A254608D6004708F0
:1006E000D7004808D80008004030142543301425AE
:1006F0004630142535082B3C031D8E2B5408C000B2
:100700005508C1005608C6005708C7006A254608A4
:10071000D8004708D9004808DA00CF2B35082F3C0D
:10072000031DA82B5408C6005508C7005608C00072
:100730005708C100BC254308D8004408D900450823
:10074000DA004608DB004708DC004808DD00CF2B54
:100750003508253C031DCF2B5408C6005508C7009B
:100760005608C0005708C100BC2540301425560863
:10077000C0005708C100AC254608C0004708C100AA
:100780004808C200463014255408C6005508C70062
:1007900087254608D8004708D9004808DA0008002D
:1007A0000830B6000030B7005808C9005908CA0020
:1007B0005A08CB003608003C0319322C403014256F
:1007C00043301425463014254908C6004A08C7009E
:1007D0004B08C8004C08C0004D08C1004E08C200BC
:1007E000BC254308003C031DF92B3708003C0319C6
:1007F0001F2C3708013EB7074308303EB0007D216B
:10080000B10A74123108C92174164C08C0004D0891
:10081000C1004E08C200AC254608C0004708C10010
:100820004808C2004908C6004A08C7004B08C8006B
:1008300087254608C9004708CA004808CB004C086D
:10084000C6004D08C7004E08C800403014250A30C5
:10085000C000BC254308CC004408CD004508CE00AC
:10086000B603DA2B3708003C031D3F2C3708303E17
:10087000B0007D21B10A74123108C92174163508FF
:100880002F3C031DC32C2C30C92174123108C921FF
:100890007416B10A74123108C92174160830B600F2
:1008A0000030B7005B08C9005C08CA005D08CB00D7
:1008B0008030CC009630CD009830CE003608003C19
:1008C0000319B62C40301425433014254630142526
:1008D0004908C6004A08C7004B08C8004C08C000B9
:1008E0004D08C1004E08C200BC254308003C031D52
:1008F0007D2C3708003C0319A32C3708013EB707AD
:100900004308303EB0007D21B10A74123108C9217C
:1009100074164C08C0004D08C1004E08C200AC253A
:100920004608C0004708C1004808C2004908C60080
:100930004A08C7004B08C80087254608C900470871
:10094000CA004808CB004C08C6004D08C7004E0836
:10095000C800403014250A30C000BC254308CC0034
:100960004408CD004508CE00B6035E2C3708003C95
:10097000031DC32C3708303EB0007D21B10A74122C
:100980003108C921741608000530B6003608003C4D
:100990000319132D403014254330142546301425F7
:1009A0004908C6004A08C7004B08C8004C08C000E8
:1009B0004D08C1004E08C200BC254308303EB000BF
:1009C0007D21B10A74123108C92174164C08C00087
:1009D0004D08C1004E08C200AC254608C0004708BB
:1009E000C1004808C2004908C6004A08C7004B08B1
:1009F000C80087254608C9004708CA004808CB0038
:100A00004C08C6004D08C7004E08C80040301425E9
:100A10000A30C000BC254308CC004408CD0045087E
:100A2000CE00B603C62C080084000330CF0080013E
:100A3000840ACF03031D172D080084000330CF0064
:100A4000800A031D0800840ACF03031D202D08001F
:100A500084000330CF008003FF300002031D080034
:100A6000840ACF03031D2B2D080084000308D00047
:100A7000CF0150088300800D0308D000840ACF0AFC
:100A800003304F02031D392D080084000230840713
:100A90000308D000CF0150088300800C0308D00069
:100AA0008403CF0A03304F02031D4B2D0800CF01F2
:100AB0004F08483C84000008D1004F08423C8400A5
:100AC0000008D102031D0800CF0A03304F02031DA6
:100AD000582D08000310D001CF01D1015018D10AC0
:100AE000D00140304F0784000008D107031850148C
:100AF00046304F0784000008D107031850145108EE
:100B00008000CF0A03304F02031D6D2D0800CF0176
:100B10005014521446304F0784000008D100403072
:100B20004F0784000008D102031C521050189C2D5E
:100B30000130D102031C521046304F078400510887
:100B400080005014521C5010CF0A03304F02031D76
:100B5000892D501C03100800463014251930D3008D
:100B6000D3030319080043186A25031043304525B1
:100B7000031040303525B02D433014251830D300F4
:100B8000C21BCA2D403003103525D303031DC02DD1
:100B90000315080057250308D200433035255208B5
:100BA0008300031887250311031040304525D30A1D
:0A0BB00019305302031DCA2D08007E
:02400E00313748
:00000001FF
